{
  "contractName": "Company",
  "abi": [
    {
      "inputs": [
        {
          "name": "owner",
          "type": "address"
        },
        {
          "name": "CaleroMain",
          "type": "address"
        },
        {
          "name": "country",
          "type": "string"
        },
        {
          "name": "name",
          "type": "string"
        },
        {
          "name": "address1",
          "type": "string"
        },
        {
          "name": "address2",
          "type": "string"
        },
        {
          "name": "city",
          "type": "string"
        },
        {
          "name": "postalCode",
          "type": "uint256"
        }
      ],
      "payable": false,
      "stateMutability": "nonpayable",
      "type": "constructor"
    },
    {
      "constant": false,
      "inputs": [
        {
          "name": "_payer",
          "type": "address"
        },
        {
          "name": "_invoiceId",
          "type": "uint256"
        },
        {
          "name": "_payDueDate",
          "type": "uint256"
        },
        {
          "name": "_item",
          "type": "string"
        },
        {
          "name": "_quantity",
          "type": "uint256"
        },
        {
          "name": "_pricePerUnit",
          "type": "uint256"
        },
        {
          "name": "_amountForPay",
          "type": "uint256"
        },
        {
          "name": "_currency",
          "type": "string"
        },
        {
          "name": "_messageToRecipient",
          "type": "string"
        }
      ],
      "name": "createInvoice",
      "outputs": [],
      "payable": false,
      "stateMutability": "nonpayable",
      "type": "function"
    },
    {
      "constant": false,
      "inputs": [
        {
          "name": "user",
          "type": "address"
        }
      ],
      "name": "addOwner",
      "outputs": [],
      "payable": false,
      "stateMutability": "nonpayable",
      "type": "function"
    },
    {
      "constant": true,
      "inputs": [
        {
          "name": "user",
          "type": "address"
        }
      ],
      "name": "isOwner",
      "outputs": [
        {
          "name": "",
          "type": "bool"
        }
      ],
      "payable": false,
      "stateMutability": "view",
      "type": "function"
    },
    {
      "constant": true,
      "inputs": [],
      "name": "listOwners",
      "outputs": [
        {
          "name": "",
          "type": "address[]"
        }
      ],
      "payable": false,
      "stateMutability": "view",
      "type": "function"
    },
    {
      "constant": true,
      "inputs": [],
      "name": "getCountry",
      "outputs": [
        {
          "name": "",
          "type": "string"
        }
      ],
      "payable": false,
      "stateMutability": "view",
      "type": "function"
    },
    {
      "constant": true,
      "inputs": [],
      "name": "getName",
      "outputs": [
        {
          "name": "",
          "type": "string"
        }
      ],
      "payable": false,
      "stateMutability": "view",
      "type": "function"
    },
    {
      "constant": true,
      "inputs": [],
      "name": "getAddress1",
      "outputs": [
        {
          "name": "",
          "type": "string"
        }
      ],
      "payable": false,
      "stateMutability": "view",
      "type": "function"
    },
    {
      "constant": true,
      "inputs": [],
      "name": "getAddress2",
      "outputs": [
        {
          "name": "",
          "type": "string"
        }
      ],
      "payable": false,
      "stateMutability": "view",
      "type": "function"
    },
    {
      "constant": true,
      "inputs": [],
      "name": "getCity",
      "outputs": [
        {
          "name": "",
          "type": "string"
        }
      ],
      "payable": false,
      "stateMutability": "view",
      "type": "function"
    },
    {
      "constant": true,
      "inputs": [],
      "name": "getPostalCode",
      "outputs": [
        {
          "name": "",
          "type": "uint256"
        }
      ],
      "payable": false,
      "stateMutability": "view",
      "type": "function"
    },
    {
      "constant": false,
      "inputs": [
        {
          "name": "country",
          "type": "string"
        }
      ],
      "name": "setCountry",
      "outputs": [],
      "payable": false,
      "stateMutability": "nonpayable",
      "type": "function"
    },
    {
      "constant": false,
      "inputs": [
        {
          "name": "name",
          "type": "string"
        }
      ],
      "name": "setName",
      "outputs": [],
      "payable": false,
      "stateMutability": "nonpayable",
      "type": "function"
    },
    {
      "constant": false,
      "inputs": [
        {
          "name": "address1",
          "type": "string"
        }
      ],
      "name": "setAddress1",
      "outputs": [],
      "payable": false,
      "stateMutability": "nonpayable",
      "type": "function"
    },
    {
      "constant": false,
      "inputs": [
        {
          "name": "address2",
          "type": "string"
        }
      ],
      "name": "setAddress2",
      "outputs": [],
      "payable": false,
      "stateMutability": "nonpayable",
      "type": "function"
    },
    {
      "constant": false,
      "inputs": [
        {
          "name": "city",
          "type": "string"
        }
      ],
      "name": "setCity",
      "outputs": [],
      "payable": false,
      "stateMutability": "nonpayable",
      "type": "function"
    },
    {
      "constant": false,
      "inputs": [
        {
          "name": "postalCode",
          "type": "uint256"
        }
      ],
      "name": "setPostalCode",
      "outputs": [],
      "payable": false,
      "stateMutability": "nonpayable",
      "type": "function"
    },
    {
      "constant": false,
      "inputs": [],
      "name": "kill",
      "outputs": [],
      "payable": false,
      "stateMutability": "nonpayable",
      "type": "function"
    }
  ],
  "bytecode": "0x606060405234156200001057600080fd5b6040516200423b3803806200423b833981016040528080519060200190919080519060200190919080518201919060200180518201919060200180518201919060200180518201919060200180518201919060200180519060200190919050506001600060070160008a73ffffffffffffffffffffffffffffffffffffffff1673ffffffffffffffffffffffffffffffffffffffff16815260200190815260200160002060006101000a81548160ff02191690831515021790555060006008018054806001018281620000e491906200021a565b916000526020600020900160008a909190916101000a81548173ffffffffffffffffffffffffffffffffffffffff021916908373ffffffffffffffffffffffffffffffffffffffff16021790555050866000800160006101000a81548173ffffffffffffffffffffffffffffffffffffffff021916908373ffffffffffffffffffffffffffffffffffffffff16021790555085600060010190805190602001906200019192919062000249565b508460006002019080519060200190620001ad92919062000249565b508360006003019080519060200190620001c992919062000249565b508260006004019080519060200190620001e592919062000249565b5081600060050190805190602001906200020192919062000249565b50806000600601819055505050505050505050620002f8565b8154818355818115116200024457818360005260206000209182019101620002439190620002d0565b5b505050565b828054600181600116156101000203166002900490600052602060002090601f016020900481019282601f106200028c57805160ff1916838001178555620002bd565b82800160010185558215620002bd579182015b82811115620002bc5782518255916020019190600101906200029f565b5b509050620002cc9190620002d0565b5090565b620002f591905b80821115620002f1576000816000905550600101620002d7565b5090565b90565b613f3380620003086000396000f30060606040526004361062000103576000357c0100000000000000000000000000000000000000000000000000000000900463ffffffff16806302580e2a14620001085780630379915d146200012e578063053a65dc14620001c257806317d7de7c14620002f45780632f54bf6e146200038857806341c0e1b514620003dc578063420cec3a14620003f45780636aa1583c14620004885780637065cb4814620004e85780639102198414620005245780639e0c3ead14620005b8578063c47f0027146200064c578063d1ad6efe14620006ac578063e7540a46146200070c578063ed60c0fc146200076c578063ef71e78914620007db578063f07513eb1462000807575b600080fd5b34156200011457600080fd5b6200012c600480803590602001909190505062000867565b005b34156200013a57600080fd5b620001446200088b565b6040518080602001828103825283818151815260200191508051906020019080838360005b838110156200018657808201518184015260208101905062000169565b50505050905090810190601f168015620001b45780820380516001836020036101000a031916815260200191505b509250505060405180910390f35b3415620001ce57600080fd5b620002f2600480803573ffffffffffffffffffffffffffffffffffffffff1690602001909190803590602001909190803590602001909190803590602001908201803590602001908080601f0160208091040260200160405190810160405280939291908181526020018383808284378201915050505050509190803590602001909190803590602001909190803590602001909190803590602001908201803590602001908080601f0160208091040260200160405190810160405280939291908181526020018383808284378201915050505050509190803590602001908201803590602001908080601f016020809104026020016040519081016040528093929190818152602001838380828437820191505050505050919050506200093c565b005b34156200030057600080fd5b6200030a62000a34565b6040518080602001828103825283818151815260200191508051906020019080838360005b838110156200034c5780820151818401526020810190506200032f565b50505050905090810190601f1680156200037a5780820380516001836020036101000a031916815260200191505b509250505060405180910390f35b34156200039457600080fd5b620003c2600480803573ffffffffffffffffffffffffffffffffffffffff1690602001909190505062000ae5565b604051808215151515815260200191505060405180910390f35b3415620003e857600080fd5b620003f262000b3d565b005b34156200040057600080fd5b6200040a62000b6d565b6040518080602001828103825283818151815260200191508051906020019080838360005b838110156200044c5780820151818401526020810190506200042f565b50505050905090810190601f1680156200047a5780820380516001836020036101000a031916815260200191505b509250505060405180910390f35b34156200049457600080fd5b620004e6600480803590602001908201803590602001908080601f0160208091040260200160405190810160405280939291908181526020018383808284378201915050505050509190505062000c1e565b005b3415620004f457600080fd5b62000522600480803573ffffffffffffffffffffffffffffffffffffffff1690602001909190505062000c54565b005b34156200053057600080fd5b6200053a62000d31565b6040518080602001828103825283818151815260200191508051906020019080838360005b838110156200057c5780820151818401526020810190506200055f565b50505050905090810190601f168015620005aa5780820380516001836020036101000a031916815260200191505b509250505060405180910390f35b3415620005c457600080fd5b620005ce62000de2565b6040518080602001828103825283818151815260200191508051906020019080838360005b8381101562000610578082015181840152602081019050620005f3565b50505050905090810190601f1680156200063e5780820380516001836020036101000a031916815260200191505b509250505060405180910390f35b34156200065857600080fd5b620006aa600480803590602001908201803590602001908080601f0160208091040260200160405190810160405280939291908181526020018383808284378201915050505050509190505062000e93565b005b3415620006b857600080fd5b6200070a600480803590602001908201803590602001908080601f0160208091040260200160405190810160405280939291908181526020018383808284378201915050505050509190505062000ec9565b005b34156200071857600080fd5b6200076a600480803590602001908201803590602001908080601f0160208091040260200160405190810160405280939291908181526020018383808284378201915050505050509190505062000eff565b005b34156200077857600080fd5b6200078262000f35565b6040518080602001828103825283818151815260200191508051906020019060200280838360005b83811015620007c7578082015181840152602081019050620007aa565b505050509050019250505060405180910390f35b3415620007e757600080fd5b620007f162000fd0565b6040518082815260200191505060405180910390f35b34156200081357600080fd5b62000865600480803590602001908201803590602001908080601f0160208091040260200160405190810160405280939291908181526020018383808284378201915050505050509190505062000fdc565b005b620008723362000ae5565b15156200087e57600080fd5b8060006006018190555050565b6200089562001380565b60006005018054600181600116156101000203166002900480601f016020809104026020016040519081016040528092919081815260200182805460018160011615610100020316600290048015620009325780601f10620009065761010080835404028352916020019162000932565b820191906000526020600020905b8154815290600101906020018083116200091457829003601f168201915b5050505050905090565b6200094662001394565b620009513362000ae5565b15156200095d57600080fd5b30816000019073ffffffffffffffffffffffffffffffffffffffff16908173ffffffffffffffffffffffffffffffffffffffff168152505089816020019073ffffffffffffffffffffffffffffffffffffffff16908173ffffffffffffffffffffffffffffffffffffffff16815250508881604001818152505087816060018181525050868160800181905250858160a0018181525050848160c0018181525050838160e0018181525050828161010001819052508181610120018190525062000a278162001012565b5050505050505050505050565b62000a3e62001380565b60006002018054600181600116156101000203166002900480601f01602080910402602001604051908101604052809291908181526020018280546001816001161561010002031660029004801562000adb5780601f1062000aaf5761010080835404028352916020019162000adb565b820191906000526020600020905b81548152906001019060200180831162000abd57829003601f168201915b5050505050905090565b60008060070160008373ffffffffffffffffffffffffffffffffffffffff1673ffffffffffffffffffffffffffffffffffffffff16815260200190815260200160002060009054906101000a900460ff169050919050565b62000b483362000ae5565b151562000b5457600080fd5b3373ffffffffffffffffffffffffffffffffffffffff16ff5b62000b7762001380565b60006004018054600181600116156101000203166002900480601f01602080910402602001604051908101604052809291908181526020018280546001816001161561010002031660029004801562000c145780601f1062000be85761010080835404028352916020019162000c14565b820191906000526020600020905b81548152906001019060200180831162000bf657829003601f168201915b5050505050905090565b62000c293362000ae5565b151562000c3557600080fd5b806000600401908051906020019062000c509291906200142c565b5050565b62000c5f3362000ae5565b151562000c6b57600080fd5b6001600060070160008373ffffffffffffffffffffffffffffffffffffffff1673ffffffffffffffffffffffffffffffffffffffff16815260200190815260200160002060006101000a81548160ff0219169083151502179055506000600801805480600101828162000cdf9190620014b3565b9160005260206000209001600083909190916101000a81548173ffffffffffffffffffffffffffffffffffffffff021916908373ffffffffffffffffffffffffffffffffffffffff1602179055505050565b62000d3b62001380565b60006003018054600181600116156101000203166002900480601f01602080910402602001604051908101604052809291908181526020018280546001816001161561010002031660029004801562000dd85780601f1062000dac5761010080835404028352916020019162000dd8565b820191906000526020600020905b81548152906001019060200180831162000dba57829003601f168201915b5050505050905090565b62000dec62001380565b60006001018054600181600116156101000203166002900480601f01602080910402602001604051908101604052809291908181526020018280546001816001161561010002031660029004801562000e895780601f1062000e5d5761010080835404028352916020019162000e89565b820191906000526020600020905b81548152906001019060200180831162000e6b57829003601f168201915b5050505050905090565b62000e9e3362000ae5565b151562000eaa57600080fd5b806000600201908051906020019062000ec59291906200142c565b5050565b62000ed43362000ae5565b151562000ee057600080fd5b806000600101908051906020019062000efb9291906200142c565b5050565b62000f0a3362000ae5565b151562000f1657600080fd5b806000600301908051906020019062000f319291906200142c565b5050565b62000f3f620014e2565b600060080180548060200260200160405190810160405280929190818152602001828054801562000fc657602002820191906000526020600020905b8160009054906101000a900473ffffffffffffffffffffffffffffffffffffffff1673ffffffffffffffffffffffffffffffffffffffff168152602001906001019080831162000f7b575b5050505050905090565b60008060060154905090565b62000fe73362000ae5565b151562000ff357600080fd5b80600060050190805190602001906200100e9291906200142c565b5050565b6000806000836000015184602001518560400151866060015187608001518860a001518960c001518a60e001518b61010001518c61012001516000800160009054906101000a900473ffffffffffffffffffffffffffffffffffffffff166200107a620014f6565b808c73ffffffffffffffffffffffffffffffffffffffff1673ffffffffffffffffffffffffffffffffffffffff1681526020018b73ffffffffffffffffffffffffffffffffffffffff1673ffffffffffffffffffffffffffffffffffffffff1681526020018a81526020018981526020018060200188815260200187815260200186815260200180602001806020018573ffffffffffffffffffffffffffffffffffffffff1673ffffffffffffffffffffffffffffffffffffffff16815260200184810384528b818151815260200191508051906020019080838360005b838110156200117557808201518184015260208101905062001158565b50505050905090810190601f168015620011a35780820380516001836020036101000a031916815260200191505b50848103835287818151815260200191508051906020019080838360005b83811015620011de578082015181840152602081019050620011c1565b50505050905090810190601f1680156200120c5780820380516001836020036101000a031916815260200191505b50848103825286818151815260200191508051906020019080838360005b83811015620012475780820151818401526020810190506200122a565b50505050905090810190601f168015620012755780820380516001836020036101000a031916815260200191505b509e505050505050505050505050505050604051809103906000f08015156200129d57600080fd5b91506000800160009054906101000a900473ffffffffffffffffffffffffffffffffffffffff1690508073ffffffffffffffffffffffffffffffffffffffff166377f24335836040518263ffffffff167c0100000000000000000000000000000000000000000000000000000000028152600401808273ffffffffffffffffffffffffffffffffffffffff1673ffffffffffffffffffffffffffffffffffffffff168152602001915050600060405180830381600087803b15156200136157600080fd5b6102c65a03f115156200137357600080fd5b5050508192505050919050565b602060405190810160405280600081525090565b61014060405190810160405280600073ffffffffffffffffffffffffffffffffffffffff168152602001600073ffffffffffffffffffffffffffffffffffffffff1681526020016000815260200160008152602001620013f362001507565b81526020016000815260200160008152602001600081526020016200141762001507565b81526020016200142662001507565b81525090565b828054600181600116156101000203166002900490600052602060002090601f016020900481019282601f106200146f57805160ff1916838001178555620014a0565b82800160010185558215620014a0579182015b828111156200149f57825182559160200191906001019062001482565b5b509050620014af91906200151b565b5090565b815481835581811511620014dd57818360005260206000209182019101620014dc91906200151b565b5b505050565b602060405190810160405280600081525090565b6040516129c4806200154483390190565b602060405190810160405280600081525090565b6200154091905b808211156200153c57600081600090555060010162001522565b5090565b905600606060405234156200001057600080fd5b604051620029c4380380620029c4833981016040528080519060200190919080519060200190919080519060200190919080519060200190919080518201919060200180519060200190919080519060200190919080519060200190919080518201919060200180518201919060200180519060200190919050508a600060010160006101000a81548173ffffffffffffffffffffffffffffffffffffffff021916908373ffffffffffffffffffffffffffffffffffffffff16021790555060006002018054806001018281620000e891906200027d565b916000526020600020900160008d909190916101000a81548173ffffffffffffffffffffffffffffffffffffffff021916908373ffffffffffffffffffffffffffffffffffffffff1602179055505089600060070160006101000a81548173ffffffffffffffffffffffffffffffffffffffff021916908373ffffffffffffffffffffffffffffffffffffffff1602179055508860006003018190555042600060040181905550876000600501819055508660006008019080519060200190620001b4929190620002ac565b5085600060090181905550846000600a0181905550836000600b0181905550826000600c019080519060200190620001ee929190620002ac565b50816000600d0190805190602001906200020a929190620002ac565b50600080600e0160006101000a81548160ff021916908360ff160217905550806000800160006101000a81548173ffffffffffffffffffffffffffffffffffffffff021916908373ffffffffffffffffffffffffffffffffffffffff16021790555050505050505050505050506200035b565b815481835581811511620002a757818360005260206000209182019101620002a6919062000333565b5b505050565b828054600181600116156101000203166002900490600052602060002090601f016020900481019282601f10620002ef57805160ff191683800117855562000320565b8280016001018555821562000320579182015b828111156200031f57825182559160200191906001019062000302565b5b5090506200032f919062000333565b5090565b6200035891905b80821115620003545760008160009055506001016200033a565b5090565b90565b612659806200036b6000396000f300606060405260043610610154576000357c0100000000000000000000000000000000000000000000000000000000900463ffffffff1680630115949c146101595780630f0bca3e146101825780631865c57d146101b057806326bbf431146101df5780632707eec01461025b5780632f971029146102b35780633263e78b146102ec57806344e3ad71146103155780635ca052db14610357578063650d993b146103d35780636945c1fd146104285780637dedde7c146104b6578063893d20e8146105325780638bf9761d1461058757806395aa16c814610615578063a4fe27bd14610691578063a7cc53f5146106ba578063add6a687146106e3578063c412eaba14610725578063cbf0b0c0146107b3578063d2fafb19146107ec578063d321fe291461082e578063d4fc7cd914610857578063dc71ebe614610880578063e915220d146108c2578063f00d4b5d14610904575b600080fd5b341561016457600080fd5b61016c61095c565b6040518082815260200191505060405180910390f35b6101ae600480803573ffffffffffffffffffffffffffffffffffffffff16906020019091905050610968565b005b34156101bb57600080fd5b6101c3610cb1565b604051808260ff1660ff16815260200191505060405180910390f35b34156101ea57600080fd5b610259600480803573ffffffffffffffffffffffffffffffffffffffff1690602001909190803590602001908201803590602001908080601f01602080910402602001604051908101604052809392919081815260200183838082843782019150505050505091905050610cca565b005b341561026657600080fd5b6102b1600480803573ffffffffffffffffffffffffffffffffffffffff1690602001909190803573ffffffffffffffffffffffffffffffffffffffff16906020019091905050610e5b565b005b34156102be57600080fd5b6102ea600480803573ffffffffffffffffffffffffffffffffffffffff1690602001909190505061103f565b005b34156102f757600080fd5b6102ff61128b565b6040518082815260200191505060405180910390f35b341561032057600080fd5b610355600480803573ffffffffffffffffffffffffffffffffffffffff16906020019091908035906020019091905050611297565b005b341561036257600080fd5b6103d1600480803573ffffffffffffffffffffffffffffffffffffffff1690602001909190803590602001908201803590602001908080601f016020809104026020016040519081016040528093929190818152602001838380828437820191505050505050919050506113c9565b005b34156103de57600080fd5b6103e66115f1565b604051808273ffffffffffffffffffffffffffffffffffffffff1673ffffffffffffffffffffffffffffffffffffffff16815260200191505060405180910390f35b341561043357600080fd5b61043b61161d565b6040518080602001828103825283818151815260200191508051906020019080838360005b8381101561047b578082015181840152602081019050610460565b50505050905090810190601f1680156104a85780820380516001836020036101000a031916815260200191505b509250505060405180910390f35b34156104c157600080fd5b610530600480803573ffffffffffffffffffffffffffffffffffffffff1690602001909190803590602001908201803590602001908080601f016020809104026020016040519081016040528093929190818152602001838380828437820191505050505050919050506116c8565b005b341561053d57600080fd5b6105456118f0565b604051808273ffffffffffffffffffffffffffffffffffffffff1673ffffffffffffffffffffffffffffffffffffffff16815260200191505060405180910390f35b341561059257600080fd5b61059a61191c565b6040518080602001828103825283818151815260200191508051906020019080838360005b838110156105da5780820151818401526020810190506105bf565b50505050905090810190601f1680156106075780820380516001836020036101000a031916815260200191505b509250505060405180910390f35b341561062057600080fd5b61068f600480803573ffffffffffffffffffffffffffffffffffffffff1690602001909190803590602001908201803590602001908080601f016020809104026020016040519081016040528093929190818152602001838380828437820191505050505050919050506119c7565b005b341561069c57600080fd5b6106a4611bef565b6040518082815260200191505060405180910390f35b34156106c557600080fd5b6106cd611bfb565b6040518082815260200191505060405180910390f35b34156106ee57600080fd5b610723600480803573ffffffffffffffffffffffffffffffffffffffff16906020019091908035906020019091905050611c07565b005b341561073057600080fd5b610738611d39565b6040518080602001828103825283818151815260200191508051906020019080838360005b8381101561077857808201518184015260208101905061075d565b50505050905090810190601f1680156107a55780820380516001836020036101000a031916815260200191505b509250505060405180910390f35b34156107be57600080fd5b6107ea600480803573ffffffffffffffffffffffffffffffffffffffff16906020019091905050611de4565b005b34156107f757600080fd5b61082c600480803573ffffffffffffffffffffffffffffffffffffffff16906020019091908035906020019091905050611eb9565b005b341561083957600080fd5b610841611feb565b6040518082815260200191505060405180910390f35b341561086257600080fd5b61086a611ff7565b6040518082815260200191505060405180910390f35b341561088b57600080fd5b6108c0600480803573ffffffffffffffffffffffffffffffffffffffff16906020019091908035906020019091905050612003565b005b34156108cd57600080fd5b610902600480803573ffffffffffffffffffffffffffffffffffffffff16906020019091908035906020019091905050612135565b005b341561090f57600080fd5b61095a600480803573ffffffffffffffffffffffffffffffffffffffff1690602001909190803573ffffffffffffffffffffffffffffffffffffffff16906020019091905050612267565b005b60008060090154905090565b6109706124e5565b81600060070160009054906101000a900473ffffffffffffffffffffffffffffffffffffffff1673ffffffffffffffffffffffffffffffffffffffff168173ffffffffffffffffffffffffffffffffffffffff16148015610a215750600060070160009054906101000a900473ffffffffffffffffffffffffffffffffffffffff1673ffffffffffffffffffffffffffffffffffffffff163373ffffffffffffffffffffffffffffffffffffffff16145b1515610a2c57600080fd5b600080600e0160009054906101000a900460ff1660ff16141515610a4f57600080fd5b6000806005015414151515610a6357600080fd5b60003414151515610a7357600080fd5b346000600b0154141515610a8657600080fd5b600060010160009054906101000a900473ffffffffffffffffffffffffffffffffffffffff16826000019073ffffffffffffffffffffffffffffffffffffffff16908173ffffffffffffffffffffffffffffffffffffffff168152505082826020019073ffffffffffffffffffffffffffffffffffffffff16908173ffffffffffffffffffffffffffffffffffffffff16815250506000600b015482604001818152505060006005015482606001818152505042826080018181525050348260a0018181525050816000600f0160008060010160009054906101000a900473ffffffffffffffffffffffffffffffffffffffff1673ffffffffffffffffffffffffffffffffffffffff1673ffffffffffffffffffffffffffffffffffffffff16815260200190815260200160002060008201518160000160006101000a81548173ffffffffffffffffffffffffffffffffffffffff021916908373ffffffffffffffffffffffffffffffffffffffff16021790555060208201518160010160006101000a81548173ffffffffffffffffffffffffffffffffffffffff021916908373ffffffffffffffffffffffffffffffffffffffff16021790555060408201518160020155606082015181600301556080820151816004015560a08201518160050155905050610c756124c4565b7f7af325d48818750f963839bd931e6a1023dd2ed672f2425c863d490424bb0dcf426040518082815260200191505060405180910390a1505050565b600080600e0160009054906101000a900460ff16905090565b81600060070160009054906101000a900473ffffffffffffffffffffffffffffffffffffffff1673ffffffffffffffffffffffffffffffffffffffff168173ffffffffffffffffffffffffffffffffffffffff16148015610d7b5750600060070160009054906101000a900473ffffffffffffffffffffffffffffffffffffffff1673ffffffffffffffffffffffffffffffffffffffff163373ffffffffffffffffffffffffffffffffffffffff16145b1515610d8657600080fd5b7f905ce9505a31c61323517d38b75c6bbb114fed78b891f151beb806d7dae9fb498383604051808373ffffffffffffffffffffffffffffffffffffffff1673ffffffffffffffffffffffffffffffffffffffff16815260200180602001828103825283818151815260200191508051906020019080838360005b83811015610e1b578082015181840152602081019050610e00565b50505050905090810190601f168015610e485780820380516001836020036101000a031916815260200191505b50935050505060405180910390a1505050565b600080600e0160009054906101000a900460ff1660ff16141515610e7e57600080fd5b81600060010160009054906101000a900473ffffffffffffffffffffffffffffffffffffffff1673ffffffffffffffffffffffffffffffffffffffff168173ffffffffffffffffffffffffffffffffffffffff16148015610f2f5750600060010160009054906101000a900473ffffffffffffffffffffffffffffffffffffffff1673ffffffffffffffffffffffffffffffffffffffff163373ffffffffffffffffffffffffffffffffffffffff16145b1515610f3a57600080fd5b7fde145cf04afde22a3cd8681d615255fd5448bb63bf80995d283536eea03aa5ca600060070160009054906101000a900473ffffffffffffffffffffffffffffffffffffffff1683604051808373ffffffffffffffffffffffffffffffffffffffff1673ffffffffffffffffffffffffffffffffffffffff1681526020018273ffffffffffffffffffffffffffffffffffffffff1673ffffffffffffffffffffffffffffffffffffffff1681526020019250505060405180910390a181600060070160006101000a81548173ffffffffffffffffffffffffffffffffffffffff021916908373ffffffffffffffffffffffffffffffffffffffff160217905550505050565b80600060010160009054906101000a900473ffffffffffffffffffffffffffffffffffffffff1673ffffffffffffffffffffffffffffffffffffffff168173ffffffffffffffffffffffffffffffffffffffff161480156110f05750600060010160009054906101000a900473ffffffffffffffffffffffffffffffffffffffff1673ffffffffffffffffffffffffffffffffffffffff163373ffffffffffffffffffffffffffffffffffffffff16145b15156110fb57600080fd5b600080600f0160008060010160009054906101000a900473ffffffffffffffffffffffffffffffffffffffff1673ffffffffffffffffffffffffffffffffffffffff1673ffffffffffffffffffffffffffffffffffffffff168152602001908152602001600020600501541415151561117357600080fd5b8173ffffffffffffffffffffffffffffffffffffffff166108fc6000600f0160008060010160009054906101000a900473ffffffffffffffffffffffffffffffffffffffff1673ffffffffffffffffffffffffffffffffffffffff1673ffffffffffffffffffffffffffffffffffffffff168152602001908152602001600020600501549081150290604051600060405180830381858888f19350505050151561121c57600080fd5b7f9fe2db218b58c00ab3556f2be44b2769b37978368c63313d82d78306568e47768242604051808373ffffffffffffffffffffffffffffffffffffffff1673ffffffffffffffffffffffffffffffffffffffff1681526020018281526020019250505060405180910390a15050565b60008060030154905090565b600080600e0160009054906101000a900460ff1660ff161415156112ba57600080fd5b81600060010160009054906101000a900473ffffffffffffffffffffffffffffffffffffffff1673ffffffffffffffffffffffffffffffffffffffff168173ffffffffffffffffffffffffffffffffffffffff1614801561136b5750600060010160009054906101000a900473ffffffffffffffffffffffffffffffffffffffff1673ffffffffffffffffffffffffffffffffffffffff163373ffffffffffffffffffffffffffffffffffffffff16145b151561137657600080fd5b7f8cc2091efde98303f7cad4c4ed5295513679272dc1ad74dc332b6db882391d5060006005015483604051808381526020018281526020019250505060405180910390a181600060050181905550505050565b600080600e0160009054906101000a900460ff1660ff161415156113ec57600080fd5b81600060010160009054906101000a900473ffffffffffffffffffffffffffffffffffffffff1673ffffffffffffffffffffffffffffffffffffffff168173ffffffffffffffffffffffffffffffffffffffff1614801561149d5750600060010160009054906101000a900473ffffffffffffffffffffffffffffffffffffffff1673ffffffffffffffffffffffffffffffffffffffff163373ffffffffffffffffffffffffffffffffffffffff16145b15156114a857600080fd5b7fbc728fadeedab516d0cf01f1a4293e19f2b1da3c535eb709a6142134e6c8f70360006008018360405180806020018060200183810383528581815460018160011615610100020316600290048152602001915080546001816001161561010002031660029004801561155c5780601f106115315761010080835404028352916020019161155c565b820191906000526020600020905b81548152906001019060200180831161153f57829003601f168201915b5050838103825284818151815260200191508051906020019080838360005b8381101561159657808201518184015260208101905061157b565b50505050905090810190601f1680156115c35780820380516001836020036101000a031916815260200191505b5094505050505060405180910390a181600060080190805190602001906115eb929190612548565b50505050565b60008060070160009054906101000a900473ffffffffffffffffffffffffffffffffffffffff16905090565b6116256125c8565b6000600c018054600181600116156101000203166002900480601f0160208091040260200160405190810160405280929190818152602001828054600181600116156101000203166002900480156116be5780601f10611693576101008083540402835291602001916116be565b820191906000526020600020905b8154815290600101906020018083116116a157829003601f168201915b5050505050905090565b600080600e0160009054906101000a900460ff1660ff161415156116eb57600080fd5b81600060010160009054906101000a900473ffffffffffffffffffffffffffffffffffffffff1673ffffffffffffffffffffffffffffffffffffffff168173ffffffffffffffffffffffffffffffffffffffff1614801561179c5750600060010160009054906101000a900473ffffffffffffffffffffffffffffffffffffffff1673ffffffffffffffffffffffffffffffffffffffff163373ffffffffffffffffffffffffffffffffffffffff16145b15156117a757600080fd5b7f1ce2c4dfadf9f98e25eb84225329cdb8d8ed2f560ff36624874a4625bb9899d36000600d018360405180806020018060200183810383528581815460018160011615610100020316600290048152602001915080546001816001161561010002031660029004801561185b5780601f106118305761010080835404028352916020019161185b565b820191906000526020600020905b81548152906001019060200180831161183e57829003601f168201915b5050838103825284818151815260200191508051906020019080838360005b8381101561189557808201518184015260208101905061187a565b50505050905090810190601f1680156118c25780820380516001836020036101000a031916815260200191505b5094505050505060405180910390a1816000600d0190805190602001906118ea929190612548565b50505050565b60008060010160009054906101000a900473ffffffffffffffffffffffffffffffffffffffff16905090565b6119246125c8565b6000600d018054600181600116156101000203166002900480601f0160208091040260200160405190810160405280929190818152602001828054600181600116156101000203166002900480156119bd5780601f10611992576101008083540402835291602001916119bd565b820191906000526020600020905b8154815290600101906020018083116119a057829003601f168201915b5050505050905090565b600080600e0160009054906101000a900460ff1660ff161415156119ea57600080fd5b81600060010160009054906101000a900473ffffffffffffffffffffffffffffffffffffffff1673ffffffffffffffffffffffffffffffffffffffff168173ffffffffffffffffffffffffffffffffffffffff16148015611a9b5750600060010160009054906101000a900473ffffffffffffffffffffffffffffffffffffffff1673ffffffffffffffffffffffffffffffffffffffff163373ffffffffffffffffffffffffffffffffffffffff16145b1515611aa657600080fd5b7fbb6648431cd2899e047ecdf132e9ffbd01373ddb2176e3dcdb4f22de967e020e6000600c0183604051808060200180602001838103835285818154600181600116156101000203166002900481526020019150805460018160011615610100020316600290048015611b5a5780601f10611b2f57610100808354040283529160200191611b5a565b820191906000526020600020905b815481529060010190602001808311611b3d57829003601f168201915b5050838103825284818151815260200191508051906020019080838360005b83811015611b94578082015181840152602081019050611b79565b50505050905090810190601f168015611bc15780820380516001836020036101000a031916815260200191505b5094505050505060405180910390a1816000600c019080519060200190611be9929190612548565b50505050565b60008060050154905090565b600080600a0154905090565b600080600e0160009054906101000a900460ff1660ff16141515611c2a57600080fd5b81600060010160009054906101000a900473ffffffffffffffffffffffffffffffffffffffff1673ffffffffffffffffffffffffffffffffffffffff168173ffffffffffffffffffffffffffffffffffffffff16148015611cdb5750600060010160009054906101000a900473ffffffffffffffffffffffffffffffffffffffff1673ffffffffffffffffffffffffffffffffffffffff163373ffffffffffffffffffffffffffffffffffffffff16145b1515611ce657600080fd5b7fa51cb028d10edb6239c8fda5af0a18a6c2fd31b5df0078d73bd8bbf844c59a2060006009015483604051808381526020018281526020019250505060405180910390a181600060090181905550505050565b611d416125c8565b60006008018054600181600116156101000203166002900480601f016020809104026020016040519081016040528092919081815260200182805460018160011615610100020316600290048015611dda5780601f10611daf57610100808354040283529160200191611dda565b820191906000526020600020905b815481529060010190602001808311611dbd57829003601f168201915b5050505050905090565b80600060010160009054906101000a900473ffffffffffffffffffffffffffffffffffffffff1673ffffffffffffffffffffffffffffffffffffffff168173ffffffffffffffffffffffffffffffffffffffff16148015611e955750600060010160009054906101000a900473ffffffffffffffffffffffffffffffffffffffff1673ffffffffffffffffffffffffffffffffffffffff163373ffffffffffffffffffffffffffffffffffffffff16145b1515611ea057600080fd5b8173ffffffffffffffffffffffffffffffffffffffff16ff5b600080600e0160009054906101000a900460ff1660ff16141515611edc57600080fd5b81600060010160009054906101000a900473ffffffffffffffffffffffffffffffffffffffff1673ffffffffffffffffffffffffffffffffffffffff168173ffffffffffffffffffffffffffffffffffffffff16148015611f8d5750600060010160009054906101000a900473ffffffffffffffffffffffffffffffffffffffff1673ffffffffffffffffffffffffffffffffffffffff163373ffffffffffffffffffffffffffffffffffffffff16145b1515611f9857600080fd5b7fff66e7ace98a1d455dbb9a4f9af91dbae0c448974279e37f7b9f4ae3ebcc2d216000600b015483604051808381526020018281526020019250505060405180910390a1816000600b0181905550505050565b600080600b0154905090565b60008060040154905090565b600080600e0160009054906101000a900460ff1660ff1614151561202657600080fd5b81600060010160009054906101000a900473ffffffffffffffffffffffffffffffffffffffff1673ffffffffffffffffffffffffffffffffffffffff168173ffffffffffffffffffffffffffffffffffffffff161480156120d75750600060010160009054906101000a900473ffffffffffffffffffffffffffffffffffffffff1673ffffffffffffffffffffffffffffffffffffffff163373ffffffffffffffffffffffffffffffffffffffff16145b15156120e257600080fd5b7fc54e191f906c628da43855791c7904e0cb196184699e1283817e901a8bb2751260006003015483604051808381526020018281526020019250505060405180910390a181600060030181905550505050565b600080600e0160009054906101000a900460ff1660ff1614151561215857600080fd5b81600060010160009054906101000a900473ffffffffffffffffffffffffffffffffffffffff1673ffffffffffffffffffffffffffffffffffffffff168173ffffffffffffffffffffffffffffffffffffffff161480156122095750600060010160009054906101000a900473ffffffffffffffffffffffffffffffffffffffff1673ffffffffffffffffffffffffffffffffffffffff163373ffffffffffffffffffffffffffffffffffffffff16145b151561221457600080fd5b7f1b0a07c193a1491ea2f21e86d0f00d395192e2c9c4b5a86e0a1cd98cb525f80f6000600a015483604051808381526020018281526020019250505060405180910390a1816000600a0181905550505050565b81600060010160009054906101000a900473ffffffffffffffffffffffffffffffffffffffff1673ffffffffffffffffffffffffffffffffffffffff168173ffffffffffffffffffffffffffffffffffffffff161480156123185750600060010160009054906101000a900473ffffffffffffffffffffffffffffffffffffffff1673ffffffffffffffffffffffffffffffffffffffff163373ffffffffffffffffffffffffffffffffffffffff16145b151561232357600080fd5b8173ffffffffffffffffffffffffffffffffffffffff16600060010160009054906101000a900473ffffffffffffffffffffffffffffffffffffffff1673ffffffffffffffffffffffffffffffffffffffff161415156123e4576000600201805480600101828161239491906125dc565b9160005260206000209001600084909190916101000a81548173ffffffffffffffffffffffffffffffffffffffff021916908373ffffffffffffffffffffffffffffffffffffffff160217905550505b81600060010160006101000a81548173ffffffffffffffffffffffffffffffffffffffff021916908373ffffffffffffffffffffffffffffffffffffffff1602179055507fb532073b38c83145e3e5135377a08bf9aab55bc0fd7c1179cd4fb995d2a5159c8383604051808373ffffffffffffffffffffffffffffffffffffffff1673ffffffffffffffffffffffffffffffffffffffff1681526020018273ffffffffffffffffffffffffffffffffffffffff1673ffffffffffffffffffffffffffffffffffffffff1681526020019250505060405180910390a1505050565b60016000600e0160006101000a81548160ff021916908360ff160217905550565b60c060405190810160405280600073ffffffffffffffffffffffffffffffffffffffff168152602001600073ffffffffffffffffffffffffffffffffffffffff168152602001600081526020016000815260200160008152602001600081525090565b828054600181600116156101000203166002900490600052602060002090601f016020900481019282601f1061258957805160ff19168380011785556125b7565b828001600101855582156125b7579182015b828111156125b657825182559160200191906001019061259b565b5b5090506125c49190612608565b5090565b602060405190810160405280600081525090565b815481835581811511612603578183600052602060002091820191016126029190612608565b5b505050565b61262a91905b8082111561262657600081600090555060010161260e565b5090565b905600a165627a7a72305820dfcebf715bd4f08526caa216608103a81832f5fc25a0b0912efaf0844e5145420029a165627a7a72305820c4e24be0f4cd5bb5091ea5bca081ffba1476ee35144bf1653b37964154145ed80029",
  "source": "pragma solidity ^0.4.18;\n\nimport \"./CaleroPlatform.sol\";\nimport \"./Invoice.sol\";\n\ncontract Company {\n\n    struct CompanyStruct {\n        address CaleroMain;\n\n        string country;\n        string name;\n        string address1;\n        string address2;\n        string city;\n        uint postalCode;\n        mapping(address => bool) users;\n        address[] usersList;\n    }\n\n    CompanyStruct company;\n\n    // Constructor\n    function Company(\n        address owner,\n        address CaleroMain,\n        string country,\n        string name,\n        string address1,\n        string address2,\n        string city,\n        uint postalCode) public {\n        company.users[owner] = true;\n        company.usersList.push(owner);\n        company.CaleroMain = CaleroMain;\n        company.country = country;\n        company.name = name;\n        company.address1 = address1;\n        company.address2 = address2;\n        company.city = city;\n        company.postalCode = postalCode;\n    }\n\n    struct InvoiceDetails {\n        address seller;\n        address payer;\n        uint invoiceId;\n        uint payDueDate;\n        string item;\n        uint quantity;\n        uint pricePerUnit;\n        uint amountForPay;\n        string currency;\n        string messageToRecipient;\n    }\n\n    // Create a new invoice\n    function createInvoice(\n        address _payer,\n        uint _invoiceId,\n        uint _payDueDate,\n        string _item,\n        uint _quantity,\n        uint _pricePerUnit,\n        uint _amountForPay,\n        string _currency,\n        string _messageToRecipient)\n    public onlyOwner {\n        InvoiceDetails memory invoiceDetails;\n\n        invoiceDetails.seller = address(this);\n        invoiceDetails.payer = _payer;\n        invoiceDetails.invoiceId = _invoiceId;\n        invoiceDetails.payDueDate = _payDueDate;\n        invoiceDetails.item = _item;\n        invoiceDetails.quantity = _quantity;\n        invoiceDetails.pricePerUnit = _pricePerUnit;\n        invoiceDetails.amountForPay = _amountForPay;\n        invoiceDetails.currency = _currency;\n        invoiceDetails.messageToRecipient = _messageToRecipient;\n\n        createInvoiceCall(invoiceDetails);\n    }\n\n    modifier onlyOwner() {\n        require(isOwner(msg.sender));\n        _;\n    }\n\n    function createInvoiceCall(InvoiceDetails invoiceDetails) private returns (address) {\n        address invoice = new Invoice(\n            invoiceDetails.seller,\n            invoiceDetails.payer,\n            invoiceDetails.invoiceId,\n            invoiceDetails.payDueDate,\n            invoiceDetails.item,\n            invoiceDetails.quantity,\n            invoiceDetails.pricePerUnit,\n            invoiceDetails.amountForPay,\n            invoiceDetails.currency,\n            invoiceDetails.messageToRecipient,\n            company.CaleroMain);\n\n        CaleroMain calero = CaleroMain(company.CaleroMain);\n        calero.addInvoice(invoice);\n\n        return invoice;\n    }\n\n    // Add new owner to Company\n    function addOwner(address user) public onlyOwner {\n        company.users[user] = true;\n        company.usersList.push(user);\n    }\n\n    // Getters (no fee)\n    function isOwner(address user) public constant returns (bool) {\n        return company.users[user];\n    }\n\n    function listOwners() public constant returns (address[]) {\n        return company.usersList;\n    }\n\n    function getCountry() public constant returns (string) {\n        return company.country;\n    }\n\n    function getName() public constant returns (string) {\n        return company.name;\n    }\n\n    function getAddress1() public constant returns (string) {\n        return company.address1;\n    }\n\n    function getAddress2() public constant returns (string) {\n        return company.address2;\n    }\n\n    function getCity() public constant returns (string) {\n        return company.city;\n    }\n\n    function getPostalCode() public constant returns (uint) {\n        return company.postalCode;\n    }\n\n    // Setters (need fee)\n    function setCountry(string country) public onlyOwner {\n        company.country = country;\n    }\n\n    function setName(string name) public onlyOwner {\n        company.name = name;\n    }\n\n    function setAddress1(string address1) public onlyOwner {\n        company.address1 = address1;\n    }\n\n    function setAddress2(string address2) public onlyOwner {\n        company.address2 = address2;\n    }\n\n    function setCity(string city) public onlyOwner {\n        company.city = city;\n    }\n\n    function setPostalCode(uint postalCode) public onlyOwner {\n        company.postalCode = postalCode;\n    }\n\n    // kill the contract\n    function kill() public onlyOwner {\n        selfdestruct(msg.sender);\n    }\n\n}",
  "sourcePath": "C:\\Users\\home\\Desktop\\Invoice-Smart-Contract\\contracts\\Company.sol",
  "compiler": {
    "name": "solc",
    "version": "0.4.19+commit.c4cbbb05.Emscripten.clang"
  },
  "schemaVersion": "2.0.0",
  "updatedAt": "2018-03-16T01:37:48.607Z"
}