{
  "contractName": "Company",
  "abi": [
    {
      "inputs": [
        {
          "name": "owner",
          "type": "address"
        },
        {
          "name": "caleroMain",
          "type": "address"
        },
        {
          "name": "country",
          "type": "string"
        },
        {
          "name": "name",
          "type": "string"
        },
        {
          "name": "address1",
          "type": "string"
        },
        {
          "name": "address2",
          "type": "string"
        },
        {
          "name": "city",
          "type": "string"
        },
        {
          "name": "postalCode",
          "type": "uint256"
        }
      ],
      "payable": false,
      "stateMutability": "nonpayable",
      "type": "constructor"
    },
    {
      "constant": false,
      "inputs": [
        {
          "name": "_payer",
          "type": "address"
        },
        {
          "name": "_invoiceId",
          "type": "uint256"
        },
        {
          "name": "_payDueDate",
          "type": "uint256"
        },
        {
          "name": "_item",
          "type": "string"
        },
        {
          "name": "_quantity",
          "type": "uint256"
        },
        {
          "name": "_pricePerUnit",
          "type": "uint256"
        },
        {
          "name": "_amountForPay",
          "type": "uint256"
        },
        {
          "name": "_currency",
          "type": "string"
        },
        {
          "name": "_messageToRecipient",
          "type": "string"
        }
      ],
      "name": "createInvoice",
      "outputs": [
        {
          "name": "",
          "type": "address"
        }
      ],
      "payable": false,
      "stateMutability": "nonpayable",
      "type": "function"
    },
    {
      "constant": false,
      "inputs": [
        {
          "name": "user",
          "type": "address"
        }
      ],
      "name": "addOwner",
      "outputs": [],
      "payable": false,
      "stateMutability": "nonpayable",
      "type": "function"
    },
    {
      "constant": true,
      "inputs": [
        {
          "name": "user",
          "type": "address"
        }
      ],
      "name": "isOwner",
      "outputs": [
        {
          "name": "",
          "type": "bool"
        }
      ],
      "payable": false,
      "stateMutability": "view",
      "type": "function"
    },
    {
      "constant": true,
      "inputs": [],
      "name": "listOwners",
      "outputs": [
        {
          "name": "",
          "type": "address[]"
        }
      ],
      "payable": false,
      "stateMutability": "view",
      "type": "function"
    },
    {
      "constant": true,
      "inputs": [],
      "name": "getCountry",
      "outputs": [
        {
          "name": "",
          "type": "string"
        }
      ],
      "payable": false,
      "stateMutability": "view",
      "type": "function"
    },
    {
      "constant": true,
      "inputs": [],
      "name": "getName",
      "outputs": [
        {
          "name": "",
          "type": "string"
        }
      ],
      "payable": false,
      "stateMutability": "view",
      "type": "function"
    },
    {
      "constant": true,
      "inputs": [],
      "name": "getAddress1",
      "outputs": [
        {
          "name": "",
          "type": "string"
        }
      ],
      "payable": false,
      "stateMutability": "view",
      "type": "function"
    },
    {
      "constant": true,
      "inputs": [],
      "name": "getAddress2",
      "outputs": [
        {
          "name": "",
          "type": "string"
        }
      ],
      "payable": false,
      "stateMutability": "view",
      "type": "function"
    },
    {
      "constant": true,
      "inputs": [],
      "name": "getCity",
      "outputs": [
        {
          "name": "",
          "type": "string"
        }
      ],
      "payable": false,
      "stateMutability": "view",
      "type": "function"
    },
    {
      "constant": true,
      "inputs": [],
      "name": "getPostalCode",
      "outputs": [
        {
          "name": "",
          "type": "uint256"
        }
      ],
      "payable": false,
      "stateMutability": "view",
      "type": "function"
    },
    {
      "constant": false,
      "inputs": [
        {
          "name": "country",
          "type": "string"
        }
      ],
      "name": "setCountry",
      "outputs": [],
      "payable": false,
      "stateMutability": "nonpayable",
      "type": "function"
    },
    {
      "constant": false,
      "inputs": [
        {
          "name": "name",
          "type": "string"
        }
      ],
      "name": "setName",
      "outputs": [],
      "payable": false,
      "stateMutability": "nonpayable",
      "type": "function"
    },
    {
      "constant": false,
      "inputs": [
        {
          "name": "address1",
          "type": "string"
        }
      ],
      "name": "setAddress1",
      "outputs": [],
      "payable": false,
      "stateMutability": "nonpayable",
      "type": "function"
    },
    {
      "constant": false,
      "inputs": [
        {
          "name": "address2",
          "type": "string"
        }
      ],
      "name": "setAddress2",
      "outputs": [],
      "payable": false,
      "stateMutability": "nonpayable",
      "type": "function"
    },
    {
      "constant": false,
      "inputs": [
        {
          "name": "city",
          "type": "string"
        }
      ],
      "name": "setCity",
      "outputs": [],
      "payable": false,
      "stateMutability": "nonpayable",
      "type": "function"
    },
    {
      "constant": false,
      "inputs": [
        {
          "name": "postalCode",
          "type": "uint256"
        }
      ],
      "name": "setPostalCode",
      "outputs": [],
      "payable": false,
      "stateMutability": "nonpayable",
      "type": "function"
    },
    {
      "constant": false,
      "inputs": [],
      "name": "kill",
      "outputs": [],
      "payable": false,
      "stateMutability": "nonpayable",
      "type": "function"
    }
  ],
  "bytecode": "0x606060405234156200001057600080fd5b6040516200438c3803806200438c833981016040528080519060200190919080519060200190919080518201919060200180518201919060200180518201919060200180518201919060200180518201919060200180519060200190919050506001600060070160008a73ffffffffffffffffffffffffffffffffffffffff1673ffffffffffffffffffffffffffffffffffffffff16815260200190815260200160002060006101000a81548160ff02191690831515021790555060006008018054806001018281620000e491906200021a565b916000526020600020900160008a909190916101000a81548173ffffffffffffffffffffffffffffffffffffffff021916908373ffffffffffffffffffffffffffffffffffffffff16021790555050866000800160006101000a81548173ffffffffffffffffffffffffffffffffffffffff021916908373ffffffffffffffffffffffffffffffffffffffff16021790555085600060010190805190602001906200019192919062000249565b508460006002019080519060200190620001ad92919062000249565b508360006003019080519060200190620001c992919062000249565b508260006004019080519060200190620001e592919062000249565b5081600060050190805190602001906200020192919062000249565b50806000600601819055505050505050505050620002f8565b8154818355818115116200024457818360005260206000209182019101620002439190620002d0565b5b505050565b828054600181600116156101000203166002900490600052602060002090601f016020900481019282601f106200028c57805160ff1916838001178555620002bd565b82800160010185558215620002bd579182015b82811115620002bc5782518255916020019190600101906200029f565b5b509050620002cc9190620002d0565b5090565b620002f591905b80821115620002f1576000816000905550600101620002d7565b5090565b90565b61408480620003086000396000f30060606040526004361062000103576000357c0100000000000000000000000000000000000000000000000000000000900463ffffffff16806302580e2a14620001085780630379915d146200012e578063053a65dc14620001c257806317d7de7c14620003345780632f54bf6e14620003c857806341c0e1b5146200041c578063420cec3a14620004345780636aa1583c14620004c85780637065cb4814620005285780639102198414620005645780639e0c3ead14620005f8578063c47f0027146200068c578063d1ad6efe14620006ec578063e7540a46146200074c578063ed60c0fc14620007ac578063ef71e789146200081b578063f07513eb1462000847575b600080fd5b34156200011457600080fd5b6200012c6004808035906020019091905050620008a7565b005b34156200013a57600080fd5b62000144620008cb565b6040518080602001828103825283818151815260200191508051906020019080838360005b838110156200018657808201518184015260208101905062000169565b50505050905090810190601f168015620001b45780820380516001836020036101000a031916815260200191505b509250505060405180910390f35b3415620001ce57600080fd5b620002f2600480803573ffffffffffffffffffffffffffffffffffffffff1690602001909190803590602001909190803590602001909190803590602001908201803590602001908080601f0160208091040260200160405190810160405280939291908181526020018383808284378201915050505050509190803590602001909190803590602001909190803590602001909190803590602001908201803590602001908080601f0160208091040260200160405190810160405280939291908181526020018383808284378201915050505050509190803590602001908201803590602001908080601f016020809104026020016040519081016040528093929190818152602001838380828437820191505050505050919050506200097c565b604051808273ffffffffffffffffffffffffffffffffffffffff1673ffffffffffffffffffffffffffffffffffffffff16815260200191505060405180910390f35b34156200034057600080fd5b6200034a62000dd3565b6040518080602001828103825283818151815260200191508051906020019080838360005b838110156200038c5780820151818401526020810190506200036f565b50505050905090810190601f168015620003ba5780820380516001836020036101000a031916815260200191505b509250505060405180910390f35b3415620003d457600080fd5b62000402600480803573ffffffffffffffffffffffffffffffffffffffff1690602001909190505062000e84565b604051808215151515815260200191505060405180910390f35b34156200042857600080fd5b6200043262000edc565b005b34156200044057600080fd5b6200044a62000f0c565b6040518080602001828103825283818151815260200191508051906020019080838360005b838110156200048c5780820151818401526020810190506200046f565b50505050905090810190601f168015620004ba5780820380516001836020036101000a031916815260200191505b509250505060405180910390f35b3415620004d457600080fd5b62000526600480803590602001908201803590602001908080601f0160208091040260200160405190810160405280939291908181526020018383808284378201915050505050509190505062000fbd565b005b34156200053457600080fd5b62000562600480803573ffffffffffffffffffffffffffffffffffffffff1690602001909190505062000ff3565b005b34156200057057600080fd5b6200057a620010d0565b6040518080602001828103825283818151815260200191508051906020019080838360005b83811015620005bc5780820151818401526020810190506200059f565b50505050905090810190601f168015620005ea5780820380516001836020036101000a031916815260200191505b509250505060405180910390f35b34156200060457600080fd5b6200060e62001181565b6040518080602001828103825283818151815260200191508051906020019080838360005b838110156200065057808201518184015260208101905062000633565b50505050905090810190601f1680156200067e5780820380516001836020036101000a031916815260200191505b509250505060405180910390f35b34156200069857600080fd5b620006ea600480803590602001908201803590602001908080601f0160208091040260200160405190810160405280939291908181526020018383808284378201915050505050509190505062001232565b005b3415620006f857600080fd5b6200074a600480803590602001908201803590602001908080601f0160208091040260200160405190810160405280939291908181526020018383808284378201915050505050509190505062001268565b005b34156200075857600080fd5b620007aa600480803590602001908201803590602001908080601f016020809104026020016040519081016040528093929190818152602001838380828437820191505050505050919050506200129e565b005b3415620007b857600080fd5b620007c2620012d4565b6040518080602001828103825283818151815260200191508051906020019060200280838360005b8381101562000807578082015181840152602081019050620007ea565b505050509050019250505060405180910390f35b34156200082757600080fd5b620008316200136f565b6040518082815260200191505060405180910390f35b34156200085357600080fd5b620008a5600480803590602001908201803590602001908080601f016020809104026020016040519081016040528093929190818152602001838380828437820191505050505050919050506200137b565b005b620008b23362000e84565b1515620008be57600080fd5b8060006006018190555050565b620008d5620013b1565b60006005018054600181600116156101000203166002900480601f016020809104026020016040519081016040528092919081815260200182805460018160011615610100020316600290048015620009725780601f10620009465761010080835404028352916020019162000972565b820191906000526020600020905b8154815290600101906020018083116200095457829003601f168201915b5050505050905090565b600062000988620013c5565b600080620009963362000e84565b1515620009a257600080fd5b30836000019073ffffffffffffffffffffffffffffffffffffffff16908173ffffffffffffffffffffffffffffffffffffffff16815250508c836020019073ffffffffffffffffffffffffffffffffffffffff16908173ffffffffffffffffffffffffffffffffffffffff16815250508b8360400181815250508a836060018181525050898360800181905250888360a0018181525050878360c0018181525050868360e00181815250508583610100018190525084836101200181905250826000015183602001518460400151856060015186608001518760a001518860c001518960e001518a61010001518b61012001516000800160009054906101000a900473ffffffffffffffffffffffffffffffffffffffff1662000ac46200145d565b808c73ffffffffffffffffffffffffffffffffffffffff1673ffffffffffffffffffffffffffffffffffffffff1681526020018b73ffffffffffffffffffffffffffffffffffffffff1673ffffffffffffffffffffffffffffffffffffffff1681526020018a81526020018981526020018060200188815260200187815260200186815260200180602001806020018573ffffffffffffffffffffffffffffffffffffffff1673ffffffffffffffffffffffffffffffffffffffff16815260200184810384528b818151815260200191508051906020019080838360005b8381101562000bbf57808201518184015260208101905062000ba2565b50505050905090810190601f16801562000bed5780820380516001836020036101000a031916815260200191505b50848103835287818151815260200191508051906020019080838360005b8381101562000c2857808201518184015260208101905062000c0b565b50505050905090810190601f16801562000c565780820380516001836020036101000a031916815260200191505b50848103825286818151815260200191508051906020019080838360005b8381101562000c9157808201518184015260208101905062000c74565b50505050905090810190601f16801562000cbf5780820380516001836020036101000a031916815260200191505b509e505050505050505050505050505050604051809103906000f080151562000ce757600080fd5b91506000800160009054906101000a900473ffffffffffffffffffffffffffffffffffffffff1690508073ffffffffffffffffffffffffffffffffffffffff166377f24335836040518263ffffffff167c0100000000000000000000000000000000000000000000000000000000028152600401808273ffffffffffffffffffffffffffffffffffffffff1673ffffffffffffffffffffffffffffffffffffffff168152602001915050600060405180830381600087803b151562000dab57600080fd5b6102c65a03f1151562000dbd57600080fd5b5050508193505050509998505050505050505050565b62000ddd620013b1565b60006002018054600181600116156101000203166002900480601f01602080910402602001604051908101604052809291908181526020018280546001816001161561010002031660029004801562000e7a5780601f1062000e4e5761010080835404028352916020019162000e7a565b820191906000526020600020905b81548152906001019060200180831162000e5c57829003601f168201915b5050505050905090565b60008060070160008373ffffffffffffffffffffffffffffffffffffffff1673ffffffffffffffffffffffffffffffffffffffff16815260200190815260200160002060009054906101000a900460ff169050919050565b62000ee73362000e84565b151562000ef357600080fd5b3373ffffffffffffffffffffffffffffffffffffffff16ff5b62000f16620013b1565b60006004018054600181600116156101000203166002900480601f01602080910402602001604051908101604052809291908181526020018280546001816001161561010002031660029004801562000fb35780601f1062000f875761010080835404028352916020019162000fb3565b820191906000526020600020905b81548152906001019060200180831162000f9557829003601f168201915b5050505050905090565b62000fc83362000e84565b151562000fd457600080fd5b806000600401908051906020019062000fef9291906200146e565b5050565b62000ffe3362000e84565b15156200100a57600080fd5b6001600060070160008373ffffffffffffffffffffffffffffffffffffffff1673ffffffffffffffffffffffffffffffffffffffff16815260200190815260200160002060006101000a81548160ff021916908315150217905550600060080180548060010182816200107e9190620014f5565b9160005260206000209001600083909190916101000a81548173ffffffffffffffffffffffffffffffffffffffff021916908373ffffffffffffffffffffffffffffffffffffffff1602179055505050565b620010da620013b1565b60006003018054600181600116156101000203166002900480601f016020809104026020016040519081016040528092919081815260200182805460018160011615610100020316600290048015620011775780601f106200114b5761010080835404028352916020019162001177565b820191906000526020600020905b8154815290600101906020018083116200115957829003601f168201915b5050505050905090565b6200118b620013b1565b60006001018054600181600116156101000203166002900480601f016020809104026020016040519081016040528092919081815260200182805460018160011615610100020316600290048015620012285780601f10620011fc5761010080835404028352916020019162001228565b820191906000526020600020905b8154815290600101906020018083116200120a57829003601f168201915b5050505050905090565b6200123d3362000e84565b15156200124957600080fd5b8060006002019080519060200190620012649291906200146e565b5050565b620012733362000e84565b15156200127f57600080fd5b80600060010190805190602001906200129a9291906200146e565b5050565b620012a93362000e84565b1515620012b557600080fd5b8060006003019080519060200190620012d09291906200146e565b5050565b620012de62001524565b60006008018054806020026020016040519081016040528092919081815260200182805480156200136557602002820191906000526020600020905b8160009054906101000a900473ffffffffffffffffffffffffffffffffffffffff1673ffffffffffffffffffffffffffffffffffffffff16815260200190600101908083116200131a575b5050505050905090565b60008060060154905090565b620013863362000e84565b15156200139257600080fd5b8060006005019080519060200190620013ad9291906200146e565b5050565b602060405190810160405280600081525090565b61014060405190810160405280600073ffffffffffffffffffffffffffffffffffffffff168152602001600073ffffffffffffffffffffffffffffffffffffffff16815260200160008152602001600081526020016200142462001538565b81526020016000815260200160008152602001600081526020016200144862001538565b81526020016200145762001538565b81525090565b604051612ae4806200157583390190565b828054600181600116156101000203166002900490600052602060002090601f016020900481019282601f10620014b157805160ff1916838001178555620014e2565b82800160010185558215620014e2579182015b82811115620014e1578251825591602001919060010190620014c4565b5b509050620014f191906200154c565b5090565b8154818355818115116200151f578183600052602060002091820191016200151e91906200154c565b5b505050565b602060405190810160405280600081525090565b602060405190810160405280600081525090565b6200157191905b808211156200156d57600081600090555060010162001553565b5090565b905600606060405234156200001057600080fd5b60405162002ae438038062002ae4833981016040528080519060200190919080519060200190919080519060200190919080519060200190919080518201919060200180519060200190919080519060200190919080519060200190919080518201919060200180518201919060200180519060200190919050508a600060010160006101000a81548173ffffffffffffffffffffffffffffffffffffffff021916908373ffffffffffffffffffffffffffffffffffffffff16021790555060006002018054806001018281620000e891906200027d565b916000526020600020900160008d909190916101000a81548173ffffffffffffffffffffffffffffffffffffffff021916908373ffffffffffffffffffffffffffffffffffffffff1602179055505089600060070160006101000a81548173ffffffffffffffffffffffffffffffffffffffff021916908373ffffffffffffffffffffffffffffffffffffffff1602179055508860006003018190555042600060040181905550876000600501819055508660006008019080519060200190620001b4929190620002ac565b5085600060090181905550846000600a0181905550836000600b0181905550826000600c019080519060200190620001ee929190620002ac565b50816000600d0190805190602001906200020a929190620002ac565b50600080600e0160006101000a81548160ff021916908360ff160217905550806000800160006101000a81548173ffffffffffffffffffffffffffffffffffffffff021916908373ffffffffffffffffffffffffffffffffffffffff16021790555050505050505050505050506200035b565b815481835581811511620002a757818360005260206000209182019101620002a6919062000333565b5b505050565b828054600181600116156101000203166002900490600052602060002090601f016020900481019282601f10620002ef57805160ff191683800117855562000320565b8280016001018555821562000320579182015b828111156200031f57825182559160200191906001019062000302565b5b5090506200032f919062000333565b5090565b6200035891905b80821115620003545760008160009055506001016200033a565b5090565b90565b612779806200036b6000396000f30060606040526004361061015f576000357c0100000000000000000000000000000000000000000000000000000000900463ffffffff1680630115949c146101645780630f0bca3e1461018d5780631865c57d146101bb57806326bbf431146101ea5780632707eec0146102665780632f971029146102be5780633263e78b146102f757806344e3ad71146103205780635ca052db14610362578063650d993b146103de5780636945c1fd146104335780637dedde7c146104c1578063893d20e81461053d5780638bf9761d1461059257806395aa16c814610620578063a4fe27bd1461069c578063a7cc53f5146106c5578063add6a687146106ee578063c412eaba14610730578063cbf0b0c0146107be578063d2fafb19146107f7578063d321fe2914610839578063d4fc7cd914610862578063dc71ebe61461088b578063e915220d146108cd578063ed60c0fc1461090f578063f00d4b5d14610979575b600080fd5b341561016f57600080fd5b6101776109d1565b6040518082815260200191505060405180910390f35b6101b9600480803573ffffffffffffffffffffffffffffffffffffffff169060200190919050506109dd565b005b34156101c657600080fd5b6101ce610d26565b604051808260ff1660ff16815260200191505060405180910390f35b34156101f557600080fd5b610264600480803573ffffffffffffffffffffffffffffffffffffffff1690602001909190803590602001908201803590602001908080601f01602080910402602001604051908101604052809392919081815260200183838082843782019150505050505091905050610d3f565b005b341561027157600080fd5b6102bc600480803573ffffffffffffffffffffffffffffffffffffffff1690602001909190803573ffffffffffffffffffffffffffffffffffffffff16906020019091905050610ed0565b005b34156102c957600080fd5b6102f5600480803573ffffffffffffffffffffffffffffffffffffffff169060200190919050506110b4565b005b341561030257600080fd5b61030a611300565b6040518082815260200191505060405180910390f35b341561032b57600080fd5b610360600480803573ffffffffffffffffffffffffffffffffffffffff1690602001909190803590602001909190505061130c565b005b341561036d57600080fd5b6103dc600480803573ffffffffffffffffffffffffffffffffffffffff1690602001909190803590602001908201803590602001908080601f0160208091040260200160405190810160405280939291908181526020018383808284378201915050505050509190505061143e565b005b34156103e957600080fd5b6103f1611666565b604051808273ffffffffffffffffffffffffffffffffffffffff1673ffffffffffffffffffffffffffffffffffffffff16815260200191505060405180910390f35b341561043e57600080fd5b610446611692565b6040518080602001828103825283818151815260200191508051906020019080838360005b8381101561048657808201518184015260208101905061046b565b50505050905090810190601f1680156104b35780820380516001836020036101000a031916815260200191505b509250505060405180910390f35b34156104cc57600080fd5b61053b600480803573ffffffffffffffffffffffffffffffffffffffff1690602001909190803590602001908201803590602001908080601f0160208091040260200160405190810160405280939291908181526020018383808284378201915050505050509190505061173d565b005b341561054857600080fd5b610550611965565b604051808273ffffffffffffffffffffffffffffffffffffffff1673ffffffffffffffffffffffffffffffffffffffff16815260200191505060405180910390f35b341561059d57600080fd5b6105a5611991565b6040518080602001828103825283818151815260200191508051906020019080838360005b838110156105e55780820151818401526020810190506105ca565b50505050905090810190601f1680156106125780820380516001836020036101000a031916815260200191505b509250505060405180910390f35b341561062b57600080fd5b61069a600480803573ffffffffffffffffffffffffffffffffffffffff1690602001909190803590602001908201803590602001908080601f01602080910402602001604051908101604052809392919081815260200183838082843782019150505050505091905050611a3c565b005b34156106a757600080fd5b6106af611c64565b6040518082815260200191505060405180910390f35b34156106d057600080fd5b6106d8611c70565b6040518082815260200191505060405180910390f35b34156106f957600080fd5b61072e600480803573ffffffffffffffffffffffffffffffffffffffff16906020019091908035906020019091905050611c7c565b005b341561073b57600080fd5b610743611dae565b6040518080602001828103825283818151815260200191508051906020019080838360005b83811015610783578082015181840152602081019050610768565b50505050905090810190601f1680156107b05780820380516001836020036101000a031916815260200191505b509250505060405180910390f35b34156107c957600080fd5b6107f5600480803573ffffffffffffffffffffffffffffffffffffffff16906020019091905050611e59565b005b341561080257600080fd5b610837600480803573ffffffffffffffffffffffffffffffffffffffff16906020019091908035906020019091905050611f2e565b005b341561084457600080fd5b61084c612060565b6040518082815260200191505060405180910390f35b341561086d57600080fd5b61087561206c565b6040518082815260200191505060405180910390f35b341561089657600080fd5b6108cb600480803573ffffffffffffffffffffffffffffffffffffffff16906020019091908035906020019091905050612078565b005b34156108d857600080fd5b61090d600480803573ffffffffffffffffffffffffffffffffffffffff169060200190919080359060200190919050506121aa565b005b341561091a57600080fd5b6109226122dc565b6040518080602001828103825283818151815260200191508051906020019060200280838360005b8381101561096557808201518184015260208101905061094a565b505050509050019250505060405180910390f35b341561098457600080fd5b6109cf600480803573ffffffffffffffffffffffffffffffffffffffff1690602001909190803573ffffffffffffffffffffffffffffffffffffffff16906020019091905050612373565b005b60008060090154905090565b6109e56125f1565b81600060070160009054906101000a900473ffffffffffffffffffffffffffffffffffffffff1673ffffffffffffffffffffffffffffffffffffffff168173ffffffffffffffffffffffffffffffffffffffff16148015610a965750600060070160009054906101000a900473ffffffffffffffffffffffffffffffffffffffff1673ffffffffffffffffffffffffffffffffffffffff163373ffffffffffffffffffffffffffffffffffffffff16145b1515610aa157600080fd5b600080600e0160009054906101000a900460ff1660ff16141515610ac457600080fd5b6000806005015414151515610ad857600080fd5b60003414151515610ae857600080fd5b346000600b0154141515610afb57600080fd5b600060010160009054906101000a900473ffffffffffffffffffffffffffffffffffffffff16826000019073ffffffffffffffffffffffffffffffffffffffff16908173ffffffffffffffffffffffffffffffffffffffff168152505082826020019073ffffffffffffffffffffffffffffffffffffffff16908173ffffffffffffffffffffffffffffffffffffffff16815250506000600b015482604001818152505060006005015482606001818152505042826080018181525050348260a0018181525050816000600f0160008060010160009054906101000a900473ffffffffffffffffffffffffffffffffffffffff1673ffffffffffffffffffffffffffffffffffffffff1673ffffffffffffffffffffffffffffffffffffffff16815260200190815260200160002060008201518160000160006101000a81548173ffffffffffffffffffffffffffffffffffffffff021916908373ffffffffffffffffffffffffffffffffffffffff16021790555060208201518160010160006101000a81548173ffffffffffffffffffffffffffffffffffffffff021916908373ffffffffffffffffffffffffffffffffffffffff16021790555060408201518160020155606082015181600301556080820151816004015560a08201518160050155905050610cea6125d0565b7f7af325d48818750f963839bd931e6a1023dd2ed672f2425c863d490424bb0dcf426040518082815260200191505060405180910390a1505050565b600080600e0160009054906101000a900460ff16905090565b81600060070160009054906101000a900473ffffffffffffffffffffffffffffffffffffffff1673ffffffffffffffffffffffffffffffffffffffff168173ffffffffffffffffffffffffffffffffffffffff16148015610df05750600060070160009054906101000a900473ffffffffffffffffffffffffffffffffffffffff1673ffffffffffffffffffffffffffffffffffffffff163373ffffffffffffffffffffffffffffffffffffffff16145b1515610dfb57600080fd5b7f905ce9505a31c61323517d38b75c6bbb114fed78b891f151beb806d7dae9fb498383604051808373ffffffffffffffffffffffffffffffffffffffff1673ffffffffffffffffffffffffffffffffffffffff16815260200180602001828103825283818151815260200191508051906020019080838360005b83811015610e90578082015181840152602081019050610e75565b50505050905090810190601f168015610ebd5780820380516001836020036101000a031916815260200191505b50935050505060405180910390a1505050565b600080600e0160009054906101000a900460ff1660ff16141515610ef357600080fd5b81600060010160009054906101000a900473ffffffffffffffffffffffffffffffffffffffff1673ffffffffffffffffffffffffffffffffffffffff168173ffffffffffffffffffffffffffffffffffffffff16148015610fa45750600060010160009054906101000a900473ffffffffffffffffffffffffffffffffffffffff1673ffffffffffffffffffffffffffffffffffffffff163373ffffffffffffffffffffffffffffffffffffffff16145b1515610faf57600080fd5b7fde145cf04afde22a3cd8681d615255fd5448bb63bf80995d283536eea03aa5ca600060070160009054906101000a900473ffffffffffffffffffffffffffffffffffffffff1683604051808373ffffffffffffffffffffffffffffffffffffffff1673ffffffffffffffffffffffffffffffffffffffff1681526020018273ffffffffffffffffffffffffffffffffffffffff1673ffffffffffffffffffffffffffffffffffffffff1681526020019250505060405180910390a181600060070160006101000a81548173ffffffffffffffffffffffffffffffffffffffff021916908373ffffffffffffffffffffffffffffffffffffffff160217905550505050565b80600060010160009054906101000a900473ffffffffffffffffffffffffffffffffffffffff1673ffffffffffffffffffffffffffffffffffffffff168173ffffffffffffffffffffffffffffffffffffffff161480156111655750600060010160009054906101000a900473ffffffffffffffffffffffffffffffffffffffff1673ffffffffffffffffffffffffffffffffffffffff163373ffffffffffffffffffffffffffffffffffffffff16145b151561117057600080fd5b600080600f0160008060010160009054906101000a900473ffffffffffffffffffffffffffffffffffffffff1673ffffffffffffffffffffffffffffffffffffffff1673ffffffffffffffffffffffffffffffffffffffff16815260200190815260200160002060050154141515156111e857600080fd5b8173ffffffffffffffffffffffffffffffffffffffff166108fc6000600f0160008060010160009054906101000a900473ffffffffffffffffffffffffffffffffffffffff1673ffffffffffffffffffffffffffffffffffffffff1673ffffffffffffffffffffffffffffffffffffffff168152602001908152602001600020600501549081150290604051600060405180830381858888f19350505050151561129157600080fd5b7f9fe2db218b58c00ab3556f2be44b2769b37978368c63313d82d78306568e47768242604051808373ffffffffffffffffffffffffffffffffffffffff1673ffffffffffffffffffffffffffffffffffffffff1681526020018281526020019250505060405180910390a15050565b60008060030154905090565b600080600e0160009054906101000a900460ff1660ff1614151561132f57600080fd5b81600060010160009054906101000a900473ffffffffffffffffffffffffffffffffffffffff1673ffffffffffffffffffffffffffffffffffffffff168173ffffffffffffffffffffffffffffffffffffffff161480156113e05750600060010160009054906101000a900473ffffffffffffffffffffffffffffffffffffffff1673ffffffffffffffffffffffffffffffffffffffff163373ffffffffffffffffffffffffffffffffffffffff16145b15156113eb57600080fd5b7f8cc2091efde98303f7cad4c4ed5295513679272dc1ad74dc332b6db882391d5060006005015483604051808381526020018281526020019250505060405180910390a181600060050181905550505050565b600080600e0160009054906101000a900460ff1660ff1614151561146157600080fd5b81600060010160009054906101000a900473ffffffffffffffffffffffffffffffffffffffff1673ffffffffffffffffffffffffffffffffffffffff168173ffffffffffffffffffffffffffffffffffffffff161480156115125750600060010160009054906101000a900473ffffffffffffffffffffffffffffffffffffffff1673ffffffffffffffffffffffffffffffffffffffff163373ffffffffffffffffffffffffffffffffffffffff16145b151561151d57600080fd5b7fbc728fadeedab516d0cf01f1a4293e19f2b1da3c535eb709a6142134e6c8f7036000600801836040518080602001806020018381038352858181546001816001161561010002031660029004815260200191508054600181600116156101000203166002900480156115d15780601f106115a6576101008083540402835291602001916115d1565b820191906000526020600020905b8154815290600101906020018083116115b457829003601f168201915b5050838103825284818151815260200191508051906020019080838360005b8381101561160b5780820151818401526020810190506115f0565b50505050905090810190601f1680156116385780820380516001836020036101000a031916815260200191505b5094505050505060405180910390a18160006008019080519060200190611660929190612654565b50505050565b60008060070160009054906101000a900473ffffffffffffffffffffffffffffffffffffffff16905090565b61169a6126d4565b6000600c018054600181600116156101000203166002900480601f0160208091040260200160405190810160405280929190818152602001828054600181600116156101000203166002900480156117335780601f1061170857610100808354040283529160200191611733565b820191906000526020600020905b81548152906001019060200180831161171657829003601f168201915b5050505050905090565b600080600e0160009054906101000a900460ff1660ff1614151561176057600080fd5b81600060010160009054906101000a900473ffffffffffffffffffffffffffffffffffffffff1673ffffffffffffffffffffffffffffffffffffffff168173ffffffffffffffffffffffffffffffffffffffff161480156118115750600060010160009054906101000a900473ffffffffffffffffffffffffffffffffffffffff1673ffffffffffffffffffffffffffffffffffffffff163373ffffffffffffffffffffffffffffffffffffffff16145b151561181c57600080fd5b7f1ce2c4dfadf9f98e25eb84225329cdb8d8ed2f560ff36624874a4625bb9899d36000600d01836040518080602001806020018381038352858181546001816001161561010002031660029004815260200191508054600181600116156101000203166002900480156118d05780601f106118a5576101008083540402835291602001916118d0565b820191906000526020600020905b8154815290600101906020018083116118b357829003601f168201915b5050838103825284818151815260200191508051906020019080838360005b8381101561190a5780820151818401526020810190506118ef565b50505050905090810190601f1680156119375780820380516001836020036101000a031916815260200191505b5094505050505060405180910390a1816000600d01908051906020019061195f929190612654565b50505050565b60008060010160009054906101000a900473ffffffffffffffffffffffffffffffffffffffff16905090565b6119996126d4565b6000600d018054600181600116156101000203166002900480601f016020809104026020016040519081016040528092919081815260200182805460018160011615610100020316600290048015611a325780601f10611a0757610100808354040283529160200191611a32565b820191906000526020600020905b815481529060010190602001808311611a1557829003601f168201915b5050505050905090565b600080600e0160009054906101000a900460ff1660ff16141515611a5f57600080fd5b81600060010160009054906101000a900473ffffffffffffffffffffffffffffffffffffffff1673ffffffffffffffffffffffffffffffffffffffff168173ffffffffffffffffffffffffffffffffffffffff16148015611b105750600060010160009054906101000a900473ffffffffffffffffffffffffffffffffffffffff1673ffffffffffffffffffffffffffffffffffffffff163373ffffffffffffffffffffffffffffffffffffffff16145b1515611b1b57600080fd5b7fbb6648431cd2899e047ecdf132e9ffbd01373ddb2176e3dcdb4f22de967e020e6000600c0183604051808060200180602001838103835285818154600181600116156101000203166002900481526020019150805460018160011615610100020316600290048015611bcf5780601f10611ba457610100808354040283529160200191611bcf565b820191906000526020600020905b815481529060010190602001808311611bb257829003601f168201915b5050838103825284818151815260200191508051906020019080838360005b83811015611c09578082015181840152602081019050611bee565b50505050905090810190601f168015611c365780820380516001836020036101000a031916815260200191505b5094505050505060405180910390a1816000600c019080519060200190611c5e929190612654565b50505050565b60008060050154905090565b600080600a0154905090565b600080600e0160009054906101000a900460ff1660ff16141515611c9f57600080fd5b81600060010160009054906101000a900473ffffffffffffffffffffffffffffffffffffffff1673ffffffffffffffffffffffffffffffffffffffff168173ffffffffffffffffffffffffffffffffffffffff16148015611d505750600060010160009054906101000a900473ffffffffffffffffffffffffffffffffffffffff1673ffffffffffffffffffffffffffffffffffffffff163373ffffffffffffffffffffffffffffffffffffffff16145b1515611d5b57600080fd5b7fa51cb028d10edb6239c8fda5af0a18a6c2fd31b5df0078d73bd8bbf844c59a2060006009015483604051808381526020018281526020019250505060405180910390a181600060090181905550505050565b611db66126d4565b60006008018054600181600116156101000203166002900480601f016020809104026020016040519081016040528092919081815260200182805460018160011615610100020316600290048015611e4f5780601f10611e2457610100808354040283529160200191611e4f565b820191906000526020600020905b815481529060010190602001808311611e3257829003601f168201915b5050505050905090565b80600060010160009054906101000a900473ffffffffffffffffffffffffffffffffffffffff1673ffffffffffffffffffffffffffffffffffffffff168173ffffffffffffffffffffffffffffffffffffffff16148015611f0a5750600060010160009054906101000a900473ffffffffffffffffffffffffffffffffffffffff1673ffffffffffffffffffffffffffffffffffffffff163373ffffffffffffffffffffffffffffffffffffffff16145b1515611f1557600080fd5b8173ffffffffffffffffffffffffffffffffffffffff16ff5b600080600e0160009054906101000a900460ff1660ff16141515611f5157600080fd5b81600060010160009054906101000a900473ffffffffffffffffffffffffffffffffffffffff1673ffffffffffffffffffffffffffffffffffffffff168173ffffffffffffffffffffffffffffffffffffffff161480156120025750600060010160009054906101000a900473ffffffffffffffffffffffffffffffffffffffff1673ffffffffffffffffffffffffffffffffffffffff163373ffffffffffffffffffffffffffffffffffffffff16145b151561200d57600080fd5b7fff66e7ace98a1d455dbb9a4f9af91dbae0c448974279e37f7b9f4ae3ebcc2d216000600b015483604051808381526020018281526020019250505060405180910390a1816000600b0181905550505050565b600080600b0154905090565b60008060040154905090565b600080600e0160009054906101000a900460ff1660ff1614151561209b57600080fd5b81600060010160009054906101000a900473ffffffffffffffffffffffffffffffffffffffff1673ffffffffffffffffffffffffffffffffffffffff168173ffffffffffffffffffffffffffffffffffffffff1614801561214c5750600060010160009054906101000a900473ffffffffffffffffffffffffffffffffffffffff1673ffffffffffffffffffffffffffffffffffffffff163373ffffffffffffffffffffffffffffffffffffffff16145b151561215757600080fd5b7fc54e191f906c628da43855791c7904e0cb196184699e1283817e901a8bb2751260006003015483604051808381526020018281526020019250505060405180910390a181600060030181905550505050565b600080600e0160009054906101000a900460ff1660ff161415156121cd57600080fd5b81600060010160009054906101000a900473ffffffffffffffffffffffffffffffffffffffff1673ffffffffffffffffffffffffffffffffffffffff168173ffffffffffffffffffffffffffffffffffffffff1614801561227e5750600060010160009054906101000a900473ffffffffffffffffffffffffffffffffffffffff1673ffffffffffffffffffffffffffffffffffffffff163373ffffffffffffffffffffffffffffffffffffffff16145b151561228957600080fd5b7f1b0a07c193a1491ea2f21e86d0f00d395192e2c9c4b5a86e0a1cd98cb525f80f6000600a015483604051808381526020018281526020019250505060405180910390a1816000600a0181905550505050565b6122e46126e8565b600060020180548060200260200160405190810160405280929190818152602001828054801561236957602002820191906000526020600020905b8160009054906101000a900473ffffffffffffffffffffffffffffffffffffffff1673ffffffffffffffffffffffffffffffffffffffff168152602001906001019080831161231f575b5050505050905090565b81600060010160009054906101000a900473ffffffffffffffffffffffffffffffffffffffff1673ffffffffffffffffffffffffffffffffffffffff168173ffffffffffffffffffffffffffffffffffffffff161480156124245750600060010160009054906101000a900473ffffffffffffffffffffffffffffffffffffffff1673ffffffffffffffffffffffffffffffffffffffff163373ffffffffffffffffffffffffffffffffffffffff16145b151561242f57600080fd5b8173ffffffffffffffffffffffffffffffffffffffff16600060010160009054906101000a900473ffffffffffffffffffffffffffffffffffffffff1673ffffffffffffffffffffffffffffffffffffffff161415156124f057600060020180548060010182816124a091906126fc565b9160005260206000209001600084909190916101000a81548173ffffffffffffffffffffffffffffffffffffffff021916908373ffffffffffffffffffffffffffffffffffffffff160217905550505b81600060010160006101000a81548173ffffffffffffffffffffffffffffffffffffffff021916908373ffffffffffffffffffffffffffffffffffffffff1602179055507fb532073b38c83145e3e5135377a08bf9aab55bc0fd7c1179cd4fb995d2a5159c8383604051808373ffffffffffffffffffffffffffffffffffffffff1673ffffffffffffffffffffffffffffffffffffffff1681526020018273ffffffffffffffffffffffffffffffffffffffff1673ffffffffffffffffffffffffffffffffffffffff1681526020019250505060405180910390a1505050565b60016000600e0160006101000a81548160ff021916908360ff160217905550565b60c060405190810160405280600073ffffffffffffffffffffffffffffffffffffffff168152602001600073ffffffffffffffffffffffffffffffffffffffff168152602001600081526020016000815260200160008152602001600081525090565b828054600181600116156101000203166002900490600052602060002090601f016020900481019282601f1061269557805160ff19168380011785556126c3565b828001600101855582156126c3579182015b828111156126c25782518255916020019190600101906126a7565b5b5090506126d09190612728565b5090565b602060405190810160405280600081525090565b602060405190810160405280600081525090565b815481835581811511612723578183600052602060002091820191016127229190612728565b5b505050565b61274a91905b8082111561274657600081600090555060010161272e565b5090565b905600a165627a7a7230582007ce577253cbb3983514cc641493f5029711f1f74103fe1338c57ab08c2e68980029a165627a7a72305820fda51ae206a56e319f59ceb9515cd1061234c48a5655165ab652c7e3834a5dba0029",
  "source": "pragma solidity ^0.4.18;\n\nimport \"./CaleroPlatform.sol\";\nimport \"./Invoice.sol\";\n\ncontract Company {\n\n    struct CompanyStruct {\n        address caleroMain;\n        string country;\n        string name;\n        string address1;\n        string address2;\n        string city;\n        uint postalCode;\n        mapping(address => bool) users;\n        address[] usersList;\n    }\n\n    CompanyStruct company;\n\n    // Constructor\n    function Company(\n        address owner,\n        address caleroMain,\n        string country,\n        string name,\n        string address1,\n        string address2,\n        string city,\n        uint postalCode) public {\n        company.users[owner] = true;\n        company.usersList.push(owner);\n        company.caleroMain = caleroMain;\n        company.country = country;\n        company.name = name;\n        company.address1 = address1;\n        company.address2 = address2;\n        company.city = city;\n        company.postalCode = postalCode;\n    }\n\n    struct InvoiceDetails {\n        address seller;\n        address payer;\n        uint invoiceId;\n        uint payDueDate;\n        string item;\n        uint quantity;\n        uint pricePerUnit;\n        uint amountForPay;\n        string currency;\n        string messageToRecipient;\n    }\n\n    // Create a new invoice\n    function createInvoice(\n        address _payer,\n        uint _invoiceId,\n        uint _payDueDate,\n        string _item,\n        uint _quantity,\n        uint _pricePerUnit,\n        uint _amountForPay,\n        string _currency,\n        string _messageToRecipient)\n    public onlyOwner returns (address) {\n        InvoiceDetails memory invoiceDetails;\n\n        invoiceDetails.seller = address(this);\n        invoiceDetails.payer = _payer;\n        invoiceDetails.invoiceId = _invoiceId;\n        invoiceDetails.payDueDate = _payDueDate;\n        invoiceDetails.item = _item;\n        invoiceDetails.quantity = _quantity;\n        invoiceDetails.pricePerUnit = _pricePerUnit;\n        invoiceDetails.amountForPay = _amountForPay;\n        invoiceDetails.currency = _currency;\n        invoiceDetails.messageToRecipient = _messageToRecipient;\n\n        address invoice = new Invoice(\n            invoiceDetails.seller,\n            invoiceDetails.payer,\n            invoiceDetails.invoiceId,\n            invoiceDetails.payDueDate,\n            invoiceDetails.item,\n            invoiceDetails.quantity,\n            invoiceDetails.pricePerUnit,\n            invoiceDetails.amountForPay,\n            invoiceDetails.currency,\n            invoiceDetails.messageToRecipient,\n            company.caleroMain);\n\n        CaleroMain calero = CaleroMain(company.caleroMain);\n        calero.addInvoice(invoice);\n\n        return invoice;\n    }\n\n    modifier onlyOwner() {\n        require(isOwner(msg.sender));\n        _;\n    }\n\n\n    // Add new owner to Company\n    function addOwner(address user) public onlyOwner {\n        company.users[user] = true;\n        company.usersList.push(user);\n    }\n\n    // Getters (no fee)\n    function isOwner(address user) public constant returns (bool) {\n        return company.users[user];\n    }\n\n    function listOwners() public constant returns (address[]) {\n        return company.usersList;\n    }\n\n    function getCountry() public constant returns (string) {\n        return company.country;\n    }\n\n    function getName() public constant returns (string) {\n        return company.name;\n    }\n\n    function getAddress1() public constant returns (string) {\n        return company.address1;\n    }\n\n    function getAddress2() public constant returns (string) {\n        return company.address2;\n    }\n\n    function getCity() public constant returns (string) {\n        return company.city;\n    }\n\n    function getPostalCode() public constant returns (uint) {\n        return company.postalCode;\n    }\n\n    // Setters (need fee)\n    function setCountry(string country) public onlyOwner {\n        company.country = country;\n    }\n\n    function setName(string name) public onlyOwner {\n        company.name = name;\n    }\n\n    function setAddress1(string address1) public onlyOwner {\n        company.address1 = address1;\n    }\n\n    function setAddress2(string address2) public onlyOwner {\n        company.address2 = address2;\n    }\n\n    function setCity(string city) public onlyOwner {\n        company.city = city;\n    }\n\n    function setPostalCode(uint postalCode) public onlyOwner {\n        company.postalCode = postalCode;\n    }\n\n    // kill the contract\n    function kill() public onlyOwner {\n        selfdestruct(msg.sender);\n    }\n\n}",
  "sourcePath": "C:\\Users\\home\\Desktop\\Invoice-Smart-Contract\\contracts\\Company.sol",
  "compiler": {
    "name": "solc",
    "version": "0.4.19+commit.c4cbbb05.Emscripten.clang"
  },
  "schemaVersion": "2.0.0",
  "updatedAt": "2018-03-16T17:01:36.324Z"
}